{
  "contractName": "StateChannel",
  "abi": [
    {
      "inputs": [],
      "payable": true,
      "stateMutability": "payable",
      "type": "constructor"
    },
    {
      "constant": true,
      "inputs": [],
      "name": "escrowOne",
      "outputs": [
        {
          "internalType": "uint256",
          "name": "",
          "type": "uint256"
        }
      ],
      "payable": false,
      "stateMutability": "view",
      "type": "function"
    },
    {
      "constant": true,
      "inputs": [],
      "name": "escrowTwo",
      "outputs": [
        {
          "internalType": "uint256",
          "name": "",
          "type": "uint256"
        }
      ],
      "payable": false,
      "stateMutability": "view",
      "type": "function"
    },
    {
      "constant": true,
      "inputs": [],
      "name": "playerOne",
      "outputs": [
        {
          "internalType": "address payable",
          "name": "",
          "type": "address"
        }
      ],
      "payable": false,
      "stateMutability": "view",
      "type": "function"
    },
    {
      "constant": true,
      "inputs": [],
      "name": "playerTwo",
      "outputs": [
        {
          "internalType": "address payable",
          "name": "",
          "type": "address"
        }
      ],
      "payable": false,
      "stateMutability": "view",
      "type": "function"
    },
    {
      "constant": false,
      "inputs": [],
      "name": "setupPlayerTwo",
      "outputs": [],
      "payable": true,
      "stateMutability": "payable",
      "type": "function"
    },
    {
      "constant": false,
      "inputs": [],
      "name": "exitStateChannel",
      "outputs": [],
      "payable": false,
      "stateMutability": "nonpayable",
      "type": "function"
    }
  ],
  "bytecode": "0x60806040526000341161007a576040517f08c379a00000000000000000000000000000000000000000000000000000000081526004018080602001828103825260118152602001807f4d75737420737570706c792066756e647300000000000000000000000000000081525060200191505060405180910390fd5b336000806101000a81548173ffffffffffffffffffffffffffffffffffffffff021916908373ffffffffffffffffffffffffffffffffffffffff16021790555034600281905550610327806100d06000396000f3fe6080604052600436106100555760003560e01c80630a9f85dd1461005a57806332160c64146100b1578063a25cc434146100bb578063abdfb57a146100d2578063bcffcf41146100fd578063ff35ea6c14610154575b600080fd5b34801561006657600080fd5b5061006f61017f565b604051808273ffffffffffffffffffffffffffffffffffffffff1673ffffffffffffffffffffffffffffffffffffffff16815260200191505060405180910390f35b6100b96101a5565b005b3480156100c757600080fd5b506100d06102bf565b005b3480156100de57600080fd5b506100e76102c1565b6040518082815260200191505060405180910390f35b34801561010957600080fd5b506101126102c7565b604051808273ffffffffffffffffffffffffffffffffffffffff1673ffffffffffffffffffffffffffffffffffffffff16815260200191505060405180910390f35b34801561016057600080fd5b506101696102ec565b6040518082815260200191505060405180910390f35b600160009054906101000a900473ffffffffffffffffffffffffffffffffffffffff1681565b6000809054906101000a900473ffffffffffffffffffffffffffffffffffffffff1673ffffffffffffffffffffffffffffffffffffffff163373ffffffffffffffffffffffffffffffffffffffff1614156101ff57600080fd5b60003411610275576040517f08c379a00000000000000000000000000000000000000000000000000000000081526004018080602001828103825260118152602001807f4d75737420737570706c792066756e647300000000000000000000000000000081525060200191505060405180910390fd5b33600160006101000a81548173ffffffffffffffffffffffffffffffffffffffff021916908373ffffffffffffffffffffffffffffffffffffffff16021790555034600381905550565b565b60035481565b6000809054906101000a900473ffffffffffffffffffffffffffffffffffffffff1681565b6002548156fea265627a7a72315820d1851e32118d5df1afe68e351cc679742ad77deee9eda8e152f0874c7311877264736f6c63430005100032",
  "source": "pragma solidity ^0.5.0;\n\ncontract StateChannel {\n    address payable public playerOne;\n    address payable public playerTwo;\n    uint256 public escrowOne;\n    uint256 public escrowTwo;\n\n    constructor() public payable {\n        require(msg.value > 0, \"Must supply funds\");\n\n        playerOne = msg.sender;\n        escrowOne = msg.value;\n    }\n\n    function setupPlayerTwo() public payable  {\n        require(msg.sender != playerOne);\n        require(msg.value > 0, \"Must supply funds\");\n\n        playerTwo = msg.sender;\n        escrowTwo = msg.value;\n    }\n\n    function exitStateChannel() public {}\n}\n",
  "sourcePath": "/Users/ericboris/Developer/state-channel-tutorial/contracts/StateChannel.sol",
  "compiler": {
    "name": "solc",
    "version": "0.5.16+commit.9c3226ce.Emscripten.clang"
  },
  "schemaVersion": "3.4.1",
  "updatedAt": "2021-07-26T19:34:47.544Z",
  "devdoc": {
    "methods": {}
  },
  "userdoc": {
    "methods": {}
  }
}